:020000040800F2
:10000000380E002099020008FF200008F7200008A1
:10001000FB200008AD030008372B0008000000009B
:10002000000000000000000000000000DD010008EA
:10003000190400080000000031020008D521000862
:10004000B3020008B3020008B3020008B3020008BC
:10005000B3020008B3020008B3020008B3020008AC
:10006000B3020008B3020008B3020008B30200089C
:10007000B3020008B3020008B3020008B30200088C
:10008000B3020008B3020008B3020008B30200087C
:10009000B3020008B3020008B3020008B30200086C
:1000A000B3020008B3020008B3020008B30200085C
:1000B000B3020008B3020008B3020008B30200084C
:1000C000B3020008B3020008B3020008B30200083C
:1000D000B3020008B3020008B3020008B30200082C
:1000E0001B040008B3020008B3020008B3020008B2
:1000F000B3020008B3020008B3020008B30200080C
:10010000B3020008B3020008B3020008B3020008FB
:10011000B3020008B3020008B1220008B3020008CD
:10012000B3020008B3020008B3020008B3020008DB
:10013000B3020008B3020008B3020008B3020008CB
:10014000B3020008B3020008B3020008B3020008BB
:10015000B3020008B3020008B3020008B3020008AB
:10016000B3020008B3020008B3020008B30200089B
:10017000B3020008B3020008B30200080000000048
:10018000B3020008B3020008B3020008B30200087B
:10019000B3020008B3020008B3020008B30200086B
:1001A000B3020008B3020008B3020008B30200085B
:1001B000B3020008B3020008B3020008B30200084B
:1001C000B3020008B3020008DFF80CD000F0DCF83E
:1001D00000480047952D0008380E00202B4B196869
:1001E0000868B0E8F04F80F30988BFF36F8F4FF0D5
:1001F000000080F311887047000000000648006886
:10020000006880F3088862B661B6BFF34F8FBFF312
:100210006F8F00DF00BF00BF08ED00E0DFF80C00CB
:10022000016841F470010160704700BF88ED00E093
:10023000EFF30980BFF36F8F144B1A681EF0100F95
:1002400008BF20ED108A20E9F04F106008B44FF08D
:10025000500072B680F31188BFF34F8FBFF36F8FDA
:1002600062B603F0B9FA4FF0000080F3118808BCC1
:1002700019680868B0E8F04F1EF0100F08BFB0EC26
:10028000108A80F30988BFF36F8F70471C0000202D
:10029000EFF3058070470000064880470648004796
:1002A000FEE7FEE7FEE7FEE7FEE7FEE7FEE7FEE726
:1002B000FEE7FEE74D220008C90100082DE9F05FC6
:1002C0000546002092469B468846064681464024C5
:1002D0001BE0284641464746224600F045F8534673
:1002E0005A46C01A914110D311461846224600F0D2
:1002F0002CF82D1A67EB01084F46224601200021F9
:1003000000F023F817EB00094E41201EA4F1010470
:10031000DFDC484631462A464346BDE8F09F30B50B
:100320000B46014600202022012409E021FA02F5B3
:100330009D4205D303FA02F5491B04FA02F528444D
:10034000151EA2F10102F1DC30BD202A04DB203AA7
:1003500000FA02F1002070479140C2F1200320FA18
:1003600003F3194390407047202A04DB203A21FA16
:1003700002F00021704721FA02F3D040C2F12002BE
:100380009140084319467047064C074D06E0E06867
:1003900040F0010394E8070098471034AC42F6D3CC
:1003A000FFF716FF6C3C00088C3C000800BFFEE71E
:1003B00010B500BF00BF00BF00BF00BFBFF34F8F2D
:1003C00000BF00BF00BF00BF00BF00BFBFF36F8F03
:1003D00000BF00BF00BF00200D4908600D48006845
:1003E00040F400300B49086000BF00BF00BFBFF3FE
:1003F0004F8F00BF00BF00BF00BF00BF00BFBFF3F3
:100400006F8F00BF00BF00BF00BF01F095FE10BDA1
:1004100050EF00E014ED00E0704710B54FF40060BD
:1004200000F008F910BD00BFFEE700002DE9F0471D
:10043000044688464FF00009002600275F488442A2
:100440001DD05F4884421AD05E48844217D05E486F
:10045000844214D05D48844211D05D4884420ED05D
:100460005C4884420BD05C48844208D05B4884429C
:1004700005D05B48844202D05A48844200D104E04F
:100480004FF49F7158A002F055FC002591E0012027
:1004900000FA05F908EA09064E457DD120686A0090
:1004A0000321914088432060E90804F1200050F8BE
:1004B00021006907CA0E0F2191408843EA0804F120
:1004C000200141F82200A0686A000321914088437E
:1004D000A06060680121A94088436060E0686A000C
:1004E000032191408843E0604F48A90850F82170EB
:1004F000A807010F0F20884007403048844201D1EF
:1005000000202DE02E48844201D1012028E02D4812
:10051000844201D1022023E02B48844201D10320F0
:100520001EE02A48844201D1042019E02848844270
:1005300001D1052014E02748844201D106200FE0B4
:100540002548844201D107200AE02448844201D191
:10055000082005E02248844201D1092000E00A2059
:10056000A907090F8840B84222D1A807010F0F2020
:1005700000FA01F72C48A90850F82110B943AA083D
:1005800040F8221029480068B04328490860081D37
:100590000068B043091D00E00AE00860081D00681B
:1005A000B043091D0860081D0068B043091D0860BC
:1005B0006D1C102DFFF46BAFBDE8F087000002400A
:1005C0000004024000080240000C024000100240FB
:1005D0000014024000180240001C024000200240AB
:1005E00000240240002802402E2E5C2E2E5C2E2E6F
:1005F0005C447269766572735C53544D333246378E
:1006000078785F48414C5F4472697665725C5372DA
:10061000635C73746D3332663778785F68616C5FE2
:100620006770696F2E63000008380140003C01408C
:100630007047000010B5044604480068204020B10F
:10064000024804602046FFF7F3FF10BD143C014050
:100650002DE9F84305460C460027B946B846002662
:10066000FE4885421DD0FE4885421AD0FD4885428D
:1006700017D0FD48854214D0FC48854211D0FC4873
:1006800085420ED0FB4885420BD0FB48854208D0FE
:10069000FA48854205D0FA48854202D0F948854299
:1006A00000D103E0C121F8A002F044FB208880B211
:1006B00000B103E0C221F4A002F03CFB606830B35B
:1006C0006068012823D06068112820D06068022863
:1006D0001DD0606812281AD0FB496068884216D085
:1006E000FA496068884212D0F949606888420ED0A1
:1006F000F849606888420AD0F7496068884206D0A5
:10070000F6496068884202D06068032800D103E09F
:10071000C321DDA002F00EFBA06828B1A06801286B
:1007200002D0A068022800D103E0C421D6A002F0C4
:1007300001FB002702E2012000FA07F9206800EA25
:100740000908C8457ED16068022802D06068122876
:1007500079D12069002877D020690128FBD0206951
:100760000028F8D020690028F5D0206900286BD037
:100770002069012868D02069022865D020690228F4
:1007800062D0206902285FD0206903285CD02069EC
:10079000032859D02069032856D02069032853D054
:1007A0002069032850D0206903284DD020690428EF
:1007B0004AD02069042847D02069042844D0206901
:1007C00004287ED0206904287BD02069052878D0B1
:1007D0002069052875D02069052872D02069052870
:1007E0006FD0206905286CD02069052869D0206960
:1007F000062866D02069062863D02069072860D0C3
:10080000206907285DD0206907285AD02069072869
:1008100057D02069072854D02069072851D0206973
:1008200007284ED0206908284BD02069082848D0D6
:100830002069082845D02069082842D02069082866
:100840003FD002E008E155E03BE02069082838D0BD
:100850002069082835D02069092832D02069092864
:100860002FD0206909282CD02069092829D0206997
:10087000092826D02069092823D02069092820D0FA
:1008800020690A281DD020690A281AD020690A2860
:1008900017D020690A2814D020690B2811D02069AC
:1008A0000C280ED020690C280BD020690C2808D009
:1008B00020690F2805D020690D2802D020690E2854
:1008C00000D103E0D52170A002F034FAF90805F157
:1008D000200050F821607807C10E0F208840864321
:1008E0007907C90E206988400643F90805F1200000
:1008F00040F821602E6879000320884086432079E3
:1009000000F003007900884006432E6060680128EB
:1009100008D06068022805D06068112802D060689D
:10092000122823D1E06840B1E068012805D0E068D2
:10093000022802D0E068032800D103E0E92152A098
:1009400002F0F8F9AE687900032088408643790008
:10095000E06888400643AE606E680120B840864378
:100960002079C0F30010B84006436E60EE6879004D
:100970000320884086437900A06888400643EE60E3
:10098000606800F08050B0F1805F65D100BF5448CE
:10099000006840F48040524908600846006800F44E
:1009A0008040009000BF00BF4E48B90850F8216059
:1009B000B807010F0F20884086432848854201D19F
:1009C00000202DE02648854201D1012028E025485D
:1009D000854201D1022023E02348854201D1032032
:1009E0001EE02248854201D1042019E020488542BA
:1009F00001D1052014E01F48854201D106200FE0F7
:100A00001D48854201D107200AE01C48854201D1DA
:100A1000082005E01A48854201D1092000E00A209B
:100A2000B907090F884006432E48B90840F82160ED
:100A30002D48066826EA0806606800F48030B0F5A4
:100A4000803F01D146EA080627480660001D066877
:100A500026EA0806606849E06FE0000000000240F6
:100A60000004024000080240000C02400010024056
:100A70000014024000180240001C02400020024006
:100A800000240240002802402E2E5C2E2E5C2E2ECA
:100A90005C447269766572735C53544D33324637E9
:100AA00078785F48414C5F4472697665725C537236
:100AB000635C73746D3332663778785F68616C5F3E
:100AC0006770696F2E630000000011100000211094
:100AD000000031100000121000002210000032103F
:100AE0004438024008380140003C014000F4003026
:100AF000B0F5003F01D146EA080613480660001D24
:100B0000066826EA0806606800F48010B0F5801FC9
:100B100001D146EA08060C48001D0660001D066863
:100B200026EA0806606800F40010B0F5001F01D145
:100B300046EA08060448083006607F1C102FFFF4C0
:100B4000FAADBDE8F8830000043C014001480068AC
:100B5000704700000C000020034800680349097832
:100B600008440149086070470C0000201400002070
:100B700010B50848006840F400700649086003207A
:100B800000F0D4F8002000F007F800F04FF8002043
:100B900010BD0000003C0240F0B587B005460026BD
:100BA000002700222946362000F072F8362000F097
:100BB00057F800BF1948006840F010001749086056
:100BC0000846006800F01000009000BF00BF01A9B7
:100BD00002A800F091FA059E1EB900F0B5FA04468D
:100BE00002E000F0B1FA44000D48B4FBF0F0471EFB
:100BF0000C480D49086040F2E7310B48C16047607E
:100C0000002101618160816100F03AFE20B906484F
:100C100000F0FAFE07B0F0BD0120FBE740380240CB
:100C200040420F000010004080000020704700008C
:100C300010B50446002C00DB03E0DE21064802F07C
:100C400079F800BF04F01F010120884003496209C0
:100C500041F8220000BF10BD283C000880E100E000
:100C600010B50446002C00DB03E0CE21074802F05B
:100C700061F800BF04F01F0101208840610989006C
:100C800001F1E021C1F8000100BF10BD283C0008BF
:100C90002DE9F05F80460C4615460027102D00D246
:100CA00003E0BA21204802F045F8102C00D203E0FE
:100CB000BB211D4802F03EF801F022FA07463946F2
:100CC00022462B4601F00700C0F1070ABAF1040FD3
:100CD00002D94FF0040A01E0C0F1070AD14600F141
:100CE000040ABAF1070F02D24FF0000A01E0A0F1A6
:100CF000030AD4464FF0010A0AFA09FAAAF1010AD6
:100D00000AEA020A0AFA0CFA4FF0010B0BFA0CFB82
:100D1000ABF1010B0BEA030B4AEA0B0631464046E6
:100D200001F0F6F9BDE8F09F283C000810B5044634
:100D3000072C07D0062C05D0052C03D0042C01D09D
:100D4000032C00D103E0A221094801F0F3FF00BF0A
:100D500004F00701074A10684FF6FF021040064AE8
:100D6000024342EA0120034A106000BF10BD0000A8
:100D7000283C00080CED00E00000FA0538B500241E
:100D800000BF2048006840F080501E4908600846B7
:100D9000006800F08050009000BF00BF1A48006853
:100DA00040F4803018490860FFF7D0FE044607E0A1
:100DB000FFF7CCFE001BB0F57A7F01D9032038BDC8
:100DC0001148406800F48030B0F5803FF0D10E4803
:100DD000006840F400300C490860FFF7B7FE044695
:100DE00007E0FFF7B3FE001BB0F57A7F01D90320BF
:100DF000E5E70548406800F40030B0F5003FF0D169
:100E00000020DCE7403802400070004070B5044626
:100E10000D4600260CB9012070BD2068012803D3BF
:100E200020680F2800D804E040F2DA219EA001F0EB
:100E300081FFEDB1012D1BD0022D19D0032D17D04C
:100E4000042D15D0052D13D0062D11D0072D0FD050
:100E5000082D0DD0092D0BD00A2D09D00B2D07D050
:100E60000C2D05D00D2D03D00E2D01D00F2D00D14E
:100E700004E040F2DB218CA001F05CFF9A4800689E
:100E800000F00F00A8420ED29748006820F00F0033
:100E90002843954908600846006800F00F00A84202
:100EA00001D00120B8E7207800F0020002283DD1EF
:100EB000207800F00400042805D18C48006840F434
:100EC000E0508A490860207800F00800082805D121
:100ED0008648006840F4604084490860A068B8B162
:100EE000A068802814D0A068902811D0A068A028FD
:100EF0000ED0A068B0280BD0A068C02808D0A06889
:100F0000D02805D0A068E02802D0A068F02800D141
:100F100004E040F2FF2164A001F00CFF7348006878
:100F200020F0F000A168084370490860207800F0C4
:100F30000100002848D0606828B16068012802D00C
:100F40006068022800D104E040F2063156A001F0AA
:100F5000F1FE6068012807D1644808380068C0F3D2
:100F60004040A0B9012057E76068022807D15F48D8
:100F700008380068C0F3406048B901204CE75B487E
:100F800008380068C0F3400008B9012044E757481A
:100F9000006820F003006168084354490860FFF7C7
:100FA000D5FD064608E0FFF7D1FD801B41F28831F0
:100FB000884201D903202FE74C48006800F00C005C
:100FC0006168B0EB810FEED14748006800F00F0078
:100FD000A8420ED94448006820F00F002843424937
:100FE00008600846006800F00F00A84201D0012008
:100FF00012E7207800F0040004281FD1E06878B1DF
:10100000E068B0F5805F0BD0E068B0F5A05F07D076
:10101000E068B0F5C05F03D0E068B0F5E05F00D1F4
:1010200004E040F2433120A001F084FE2F48006824
:1010300020F4E050E16808432C490860207800F073
:101040000800082820D1206978B12069B0F5805FB8
:101050000BD02069B0F5A05F07D02069B0F5C05F64
:1010600003D02069B0F5E05F00D104E040F24A31DE
:101070000DA001F05FFE1D48006820F4604021696A
:1010800040EAC1001949086000F07EF81749096874
:10109000C1F30311164A515CC8401649086000208C
:1010A000FFF77AFD0020B7E62E2E5C2E2E5C2E2E4A
:1010B0005C447269766572735C53544D33324637C3
:1010C00078785F48414C5F4472697665725C537210
:1010D000635C73746D3332663778785F68616C5F18
:1010E0007263632E63000000003C02400838024037
:1010F000043C0008180000200F2202600D4A12680C
:1011000002F0030242600B4A126802F0F0028260B1
:10111000084A126802F4E052C260064A126802F4F9
:101120006042D2080261044A126802F00F020A60AB
:101130007047000008380240003C02400148006847
:10114000704700001800002000B5FFF7F7FF0449C2
:101150000968C1F38221034A515CC84000BD000008
:1011600008380240143C000800B5FFF7E7FF0449C7
:101170000968C1F34231034A515CC84000BD000018
:1011800008380240143C00082DE9F04700240025EF
:101190000026A1462548006800F00C0020B1042874
:1011A00005D008283AD105E0DFF8849039E0DFF86F
:1011B000849036E01D48001F006800F03F041B4883
:1011C000001F006800F4800078B11A481749091F11
:1011D0000968C1F38811A0FB017001462246002373
:1011E0003846FFF76BF805460EE011480F49091F16
:1011F0000968C1F38811A0FB017001462246002353
:101200003846FFF75BF805460848001F0068C0F342
:101210000140401C4600B5FBF6F902E0DFF81090F3
:1012200000BF00BF4846BDE8F08700000838024014
:101230000024F40040787D01F8B5044600260CB97E
:101240000120F8BD20680F2800D804E04FF4BA71DF
:10125000F8A001F06FFD207800F00100002873D0A5
:10126000606838B16068B0F5803F03D06068B0F561
:10127000A02F00D104E04FF4BD71EEA001F05AFDA3
:10128000FC48006800F00C0004280DD0F948006804
:1012900000F00C00082813D1F648001F006800F485
:1012A0008000B0F5800F0BD1F24808380068C0F319
:1012B000404000286AD06068002867D10120C0E75C
:1012C00000BF6068B0F5803F08D1EA480838006880
:1012D00040F48030E749083908602EE0606868B95A
:1012E000E4480838006820F48030E2490839086092
:1012F0000846006820F4802008601EE06068B0F5B1
:10130000A02F0DD1DB480838006840F48020D9496F
:10131000083908600846006840F4803008600CE036
:10132000D4480838006820F48030D2490839086071
:101330000846006820F48020086000BF606898B10B
:10134000FFF704FC054607E020E0FFF7FFFB401B2A
:10135000642801D9032074E7C64808380068C0F340
:1013600040400028F1D011E0FFF7F0FB054606E011
:10137000FFF7ECFB401B642801D9032061E7BD485F
:1013800008380068C0F340400028F1D1207800F010
:10139000020002287DD1E06810B1E068012800D188
:1013A00004E04FF4D671A3A001F0C4FC20691F280B
:1013B00000D804E040F2AD119EA001F0BBFCAD48A6
:1013C000006800F00C0058B1AA48006800F00C005A
:1013D00008281CD1A748001F006800F48000B0B99D
:1013E000A44808380068C0F3400020B1E068012834
:1013F00001D0012025E79F480838006820F0F80058
:10140000216940EAC1009B490839086041E0E06871
:1014100028B398480838006840F001009549083919
:101420000860FFF793FB054606E0FFF78FFB401BC4
:10143000022801D9032004E78E4808380068C0F369
:1014400040000028F1D08B480838006820F0F800F0
:10145000216940EAC10087490839086019E08548D8
:101460000838006820F00100824908390860FFF759
:101470006DFB054606E0FFF769FB401B022801D91A
:101480000320DEE67B4808380068C0F340000028EF
:10149000F1D1207800F00800082841D1606910B12E
:1014A0006069012800D104E040F2ED1161A001F073
:1014B00041FC6069D0B16F486C30006840F00100B9
:1014C0006C496C310860FFF741FB054606E0FFF709
:1014D0003DFB401B022801D90320B2E665486C3071
:1014E0000068C0F340000028F1D019E061486C307A
:1014F000006820F001005F496C310860FFF726FBAF
:10150000054606E0FFF722FB401B022801D9032015
:1015100097E658486C300068C0F340000028F1D1CD
:10152000207800F0040004287ED1A06828B1A068CB
:10153000012802D0A068052800D104E040F217215C
:101540003CA001F0F7FB4B483830006800F08050B9
:1015500080B900BF47483830006840F080504549A6
:10156000383108600846006800F08050009000BFE5
:1015700000BF01264048006800F48070B0B93E48C2
:10158000006840F480703C490860FFF7DFFA0546C8
:1015900006E0FFF7DBFA401B642801D9032050E680
:1015A0003548006800F480700028F2D000BFA068C1
:1015B000012808D12F486830006840F001002D490B
:1015C000683108602DE0A06868B92A486830006872
:1015D00020F001002749683108600846006820F0C3
:1015E000040008601DE0A06805280DD1214868307E
:1015F000006840F004001F49683108600846006830
:1016000040F0010008600CE01A486830006820F0E3
:1016100001001849683108600846006820F004009D
:10162000086000BFA06800E056E038B3FFF78EFA0C
:1016300005462DE02E2E5C2E2E5C2E2E5C4472690B
:10164000766572735C53544D3332463778785F4811
:10165000414C5F4472697665725C5372635C73746B
:101660006D3332663778785F68616C5F7263632EC2
:101670006300000008380240007000400FE0FFF7F0
:1016800065FA401B41F28831884201D90320D8E530
:1016900079480068C0F340000028F0D012E0FFF75E
:1016A00055FA054608E0FFF751FA401B41F2883130
:1016B000884201D90320C4E56F480068C0F34000A8
:1016C0000028F0D1012E07D16B483038006820F097
:1016D0008050694930390860A06928B1A0690128A3
:1016E00002D0A069022800D105E040F25B21AFF2F0
:1016F000BC0001F01FFBA06900287CD05E48683860
:10170000006800F00C00082876D0A069022874D187
:10171000E06918B1E069B0F5800F00D105E04FF441
:101720001971AFF2F00001F005FB206A022803D323
:10173000206A3F2800D805E040F26521AFF20C1086
:1017400001F0F8FA606A322804D3606AB0F5D87FF5
:1017500000D805E040F26621AFF2281001F0EAFA65
:10176000A06A022808D0A06A042805D0A06A06282A
:1017700002D0A06A082800D105E040F26721AFF24C
:101780004C1001F0D7FAE06A022803D3E06A0F2870
:1017900000D805E04FF41A71AFF2681001F0CAFAF0
:1017A00035487038006820F080703349703908601F
:1017B000FFF7CCF9054606E0FFF7C8F9401B022801
:1017C00001D903203DE52C4870380068C0F3406023
:1017D0000028F1D1E06940F00050216A0843616AB5
:1017E00040EA81110122A06AC2EB500041EA0041A7
:1017F0002C20005D02E03CE039E01DE041EA0060A1
:101800001D496C390860081F006840F08070091F8E
:101810000860FFF79BF9054606E0FFF797F9401BC4
:10182000022801D903200CE5134870380068C0F382
:1018300040600028F1D01CE00F487038006820F0AC
:1018400080700D4970390860FFF780F9054606E0A1
:10185000FFF77CF9401B022801D90320F1E4064878
:1018600070380068C0F340600028F1D101E0012029
:10187000E7E40020E5E4000070380240704770475C
:1018800010B504460CB9012010BD414920688842BA
:1018900033D02068B0F1804F2FD03E492068884275
:1018A0002BD03D492068884227D03C492068884297
:1018B00023D03B49206888421FD03A49206888429B
:1018C0001BD039492068884217D03849206888429F
:1018D00013D03749206888420FD0364920688842A3
:1018E0000BD035492068884207D0344920688842A7
:1018F00003D033492068884200D104E04FF4857159
:1019000030A001F017FAA06858B1A068102808D0DC
:10191000A068202805D0A068402802D0A0686028D0
:1019200000D104E040F20B1126A001F003FA206977
:1019300038B12069B0F5807F03D02069B0F5007F11
:1019400000D104E04FF486711EA001F0F3F9A06904
:1019500010B1A069802800D104E040F20D1119A057
:1019600001F0E8F994F83D0028B9002084F83C0023
:10197000204600F047F8022084F83D00211D206831
:1019800000F09EFC012084F83D0000207CE7000070
:10199000000001400004004000080040000C00402E
:1019A00000100040001400400004014000400140CD
:1019B000004401400048014000180040001C004065
:1019C000002000402E2E5C2E2E5C2E2E5C44726970
:1019D000766572735C53544D3332463778785F487E
:1019E000414C5F4472697665725C5372635C7374D8
:1019F0006D3332663778785F68616C5F74696D2E1D
:101A0000630000007047000010B5044625492068B7
:101A1000884233D02068B0F1804F2FD0224920680F
:101A200088422BD021492068884227D0204920684D
:101A3000884223D01F49206888421FD01E49206851
:101A400088421BD01D492068884217D01C49206855
:101A5000884213D01B49206888420FD01A49206859
:101A600088420BD019492068884207D0184920685D
:101A7000884203D017492068884200D104E040F230
:101A8000AD1115A001F056F92068C06840F00100C2
:101A90002168C8602068006840F001002168086083
:101AA000002010BD0000014000040040000800407C
:101AB000000C0040001000400014004000040140F1
:101AC000004001400044014000480140001800402F
:101AD000001C0040002000402E2E5C2E2E5C2E2E7E
:101AE0005C447269766572735C53544D3332463789
:101AF00078785F48414C5F4472697665725C5372D6
:101B0000635C73746D3332663778785F68616C5FDD
:101B100074696D2E63000000704710B5044620689C
:101B20000069C0F34000D8B12068C068C0F340002D
:101B3000B0B16FF0020021680861012020772068B1
:101B4000806900F0030018B12046FFF7E5FF05E0CB
:101B5000204600F0BEF8204600F0BCF800202077B8
:101B600020680069C0F38000D8B12068C068C0F365
:101B70008000B0B16FF00400216808610220207776
:101B80002068806900F4407018B12046FFF7C4FF58
:101B900005E0204600F09DF8204600F09BF800206C
:101BA000207720680069C0F3C000D8B12068C06801
:101BB000C0F3C000B0B16FF00800216808610420D4
:101BC00020772068C06900F0030018B12046FFF7B5
:101BD000A3FF05E0204600F07CF8204600F07AF8EC
:101BE0000020207720680069C0F30010D8B1206879
:101BF000C068C0F30010B0B16FF010002168086138
:101C0000082020772068C06900F4407018B1204691
:101C1000FFF782FF05E0204600F05BF8204600F069
:101C200059F8002020772068006900F0010058B1C1
:101C30002068C06800F0010030B16FF00100216839
:101C40000861204600F047F820680069C0F3C01022
:101C500058B12068C068C0F3C01030B16FF0800088
:101C6000216808612046FFF709FE20680069C0F37B
:101C7000002058B12068C068C0F3C01030B16FF0C8
:101C80008000216808612046FFF7F8FD20680069A0
:101C9000C0F3801058B12068C068C0F3801030B124
:101CA0006FF0400021680861204600F019F82068B4
:101CB0000069C0F3401058B12068C068C0F34010FC
:101CC00030B16FF02000216808612046FFF7D7FD92
:101CD00010BD7047704710B50446FEF73DFF10BDBC
:101CE0007047000010B504460CB9012010BD224910
:101CF000206888421BD021492068884217D020499B
:101D00002068884213D01F49206888420FD01E499E
:101D1000206888420BD01D492068884207D01C49A2
:101D20002068884203D01B492068884200D104E023
:101D300040F2522118A000F0FDFF242084F8690031
:101D40002068006820F001002168086000202168F8
:101D500008602168486021688860204600F0F4F837
:101D60000020E06684F8690084F86A0000BF84F807
:101D7000680000BF00BFB9E7001001400044004008
:101D800000480040004C004000500040001401405A
:101D900000780040007C00402E2E5C2E2E5C2E2E03
:101DA0005C447269766572735C53544D33324637C6
:101DB00078785F48414C5F4472697665725C537213
:101DC000635C73746D3332663778785F68616C5F1B
:101DD000756172742E63000010B504460CB90120C1
:101DE00010BDA069002825D03F49206888421BD03B
:101DF0003E492068884217D03D492068884213D068
:101E00003C49206888420FD03B49206888420BD06B
:101E10003A492068884207D039492068884203D06F
:101E200038492068884200D12AE0FC2136A000F021
:101E300081FF25E02C49206888421BD02B4920686F
:101E4000884217D02A492068884213D0294920683F
:101E500088420FD02849206888420BD02749206843
:101E6000884207D026492068884203D02549206847
:101E7000884200D104E040F2011123A000F05AFF93
:101E800094F8690028B9002084F86800204600F022
:101E90007BF8242084F869002068006820F00100A5
:101EA00021680860204600F0C1FB012800D197E7B7
:101EB000606A10B1204600F07BFA2068406820F488
:101EC0009040216848602068806820F02A002168DE
:101ED00088602068006840F00100216808602046A2
:101EE00000F07CFB7CE70000001001400044004053
:101EF00000480040004C00400050004000140140E9
:101F000000780040007C00402E2E5C2E2E5C2E2E91
:101F10005C447269766572735C53544D3332463754
:101F200078785F48414C5F4472697665725C5372A1
:101F3000635C73746D3332663778785F68616C5FA9
:101F4000756172742E63000010B504460B4800687A
:101F500040F01000094908600846006820F01000B1
:101F6000086049150648FEF761FA80210548FEF72A
:101F70005DFA2520FEF75CFE10BD0000243802400B
:101F8000000002400004024010B586B0044600BFC5
:101F90002448006840F001002249086008460068B3
:101FA00000F00100009000BF00BF00BF08460068BD
:101FB00040F0020008600846006800F0020000904F
:101FC00000BF00BF00BF17481430006840F0100089
:101FD0001449143108600846006800F010000090B1
:101FE00000BF00BF4815019002200290012003901D
:101FF000032004900720059001A90B48FEF728FB59
:10200000802001900720059001A90848FEF720FBD9
:10201000012200212520FEF73BFE2520FEF720FEB1
:1020200006B010BD303802400000024000040240FB
:102030002DE9F84304460D4616461F464FF00009A9
:1020400094F86900202854D105B116B90120BDE8E3
:10205000F88300BF94F86800012801D10220F6E758
:10206000012084F8680000BF00205034E061212086
:102070006076FEF76BFD814626806680503C21E04D
:10208000B4F85200401EA4F852004B4600228021B2
:102090002046009700F015FD08B10320D7E7A0689F
:1020A000B0F5805F0AD1206940B9A846B8F80000B1
:1020B000C0F3080021688862AD1C03E015F8010B2D
:1020C00021688862B4F852000028D9D14B4600221A
:1020D00040212046009700F0F4FC08B10320B6E749
:1020E000202084F8690000BF002084F8680000BF49
:1020F000ADE70220ABE700BFFEE700BFFEE7704799
:1021000002480068C0F30220704700000CED00E0B8
:1021100010B5002807DA0A07140E054A00F00F036D
:102120001B1FD45403E00A07130E024A135410BDB8
:1021300018ED00E000E400E010B50023234C23601C
:1021400000BF00BF00BFBFF34F8F00BF00BF00BF85
:10215000231F1868C0F34E3100BFC0F3C90200BF8F
:1021600043F6E07303EA41134FF0404404EA8274FB
:102170002343174C236000BF00BF131EA2F10102CE
:10218000EED10B1EA1F10101E7D100BF00BF00BFDE
:10219000BFF34F8F00BF00BF00BF0C4B703B1B68ED
:1021A00043F48033094C703C236000BF00BF00BF84
:1021B000BFF34F8F00BF00BF00BF00BF00BF00BF15
:1021C000BFF36F8F00BF00BF00BF10BD84ED00E004
:1021D00060EF00E010B5FEF7BFFC10BD10B592B087
:1021E0000024012001900004029002200790410584
:1021F0000891192109914FF4D8710A9102210B918C
:1022000009210C9101A8FFF717F804460CB100BF93
:10221000FEE7FEF7B3FD04460CB100BFFEE70F205A
:102220000D9002200E9000200F904FF4A0501090BF
:102230004FF48050119007210DA8FEF7E7FD0446EA
:102240000CB100BFFEE712B010BD000014480068DA
:1022500040F47000124908601248006840F0010024
:102260001049086000200F49083108600D480068D7
:102270000D4908400B4908600C48091D0860081FFB
:10228000006820F48020091F0860002005490C31F7
:1022900008604FF000600249803908607047000014
:1022A00088ED00E000380240FFFFF6FE1030002409
:1022B00010B50248FFF731FC10BD0000800000207F
:1022C00010B5002202682F4B98420ED0B0F1804F1B
:1022D0000BD02D4B984208D02C4B984205D02C4B5C
:1022E000984202D02B4B984201D1012300E00023F9
:1022F0001BB122F070024B681A43224B984220D047
:10230000B0F1804F1DD0204B98421AD01F4B9842FD
:1023100017D01F4B984214D01E4B984211D01E4B21
:1023200098420ED01D4B98420BD01D4B984208D0BE
:102330001C4B984205D01C4B984202D01B4B984234
:1023400001D1012300E000231BB122F44072CB68CD
:102350001A4322F080034C6943EA040202608B684E
:10236000C3620B688362074B984202D0094B9842C4
:1023700001D1012300E000230BB10B6903630123AA
:10238000436110BD0000014000040040000800400F
:10239000000C0040000401400040014000440140A6
:1023A0000048014000180040001C00400020004090
:1023B00010B50446606AFF2800D804E040F293712B
:1023C00076A000F0B7FC94F8240000F0010098B16A
:1023D000A06A18B1A06AB0F5003F00D104E04FF444
:1023E000F3616EA000F0A6FC2068406820F4003085
:1023F000A16A08432168486094F8240000F00200B4
:1024000098B1E06A18B1E06AB0F5803F00D104E00D
:1024100040F29F7161A000F08DFC2068406820F4BC
:102420008030E16A08432168486094F8240000F095
:10243000040098B1206B18B1206BB0F5802F00D14B
:1024400004E040F2A67155A000F074FC20684068DA
:1024500020F48020216B08432168486094F8240010
:1024600000F0080098B1606B18B1606BB0F5004FD8
:1024700000D104E040F2AD7148A000F05BFC2068A0
:10248000406820F40040616B08432168486094F87C
:10249000240000F0100098B1A06B18B1A06BB0F54B
:1024A000805F00D104E040F2B4713CA000F042FC37
:1024B0002068806820F48050A16B08432168886000
:1024C00094F8240000F0200098B1E06B18B1E06BA4
:1024D000B0F5005F00D104E040F2BB712FA000F026
:1024E00029FC2068806820F40050E16B08432168D3
:1024F000886094F8240000F04000002833D0206C5D
:1025000018B1206CB0F5801F00D104E040F2C27118
:1025100022A000F00FFC2068406820F48010216C9D
:10252000084321684860206CB0F5801F1BD1606CA7
:1025300058B1606CB0F5001F07D0606CB0F5800F2B
:1025400003D0606CB0F5C00F00D104E040F2C77159
:1025500012A000F0EFFB2068406820F4C000616C1E
:1025600008432168486094F8240000F0800098B186
:10257000A06C18B1A06CB0F5002F00D104E040F2BF
:10258000CF7106A000F0D6FB2068406820F4002040
:10259000A16C08432168486010BD00002E2E5C2EFF
:1025A0002E5C2E2E5C447269766572735C53544DBA
:1025B0003332463778785F48414C5F4472697665BC
:1025C000725C5372635C73746D3332663778785F14
:1025D00068616C5F756172742E63000038B50446E3
:1025E00000250020E066FEF7B1FA05462068006885
:1025F00000F0080008280CD16FF07E402B46002226
:102600004FF400110090204600F05BFA08B103205F
:1026100038BD202084F8690084F86A0000BF0020DB
:1026200084F8680000BF00BFF2E700002DE9F04722
:102630000446002510260027A846A946F9496068E7
:10264000884200D204E040F22A71F7A000F072FB49
:10265000A068B0F1805F05D0A06818B1A068B0F59F
:10266000805F00D104E040F22B71EFA000F062FB2C
:10267000E06818B1E068B0F5005F00D104E040F216
:102680002C71E9A000F056FB206938B12069B0F543
:10269000806F03D02069B0F5C06F00D104E040F234
:1026A0002D71E1A000F046FB606920F00C0010B92C
:1026B000606900B104E040F22E71DBA000F03AFB4B
:1026C000A06958B1A069B0F5807F07D0A069B0F5C6
:1026D000007F03D0A069B0F5407F00D104E040F254
:1026E0002F71D1A000F026FB206A18B1206AB0F546
:1026F000006F00D104E04FF4E661CBA000F01AFBBC
:102700002169A068084361690843E16940EA01055D
:1027100020680068D4490840284321680860206880
:10272000406820F44050E168084321684860216A0D
:10273000A06940EA01052068806820F430602843E1
:102740002168886000BFC9492068884215D1C848FF
:10275000006800F0030030B1012808D0022804D03E
:10276000032808D105E0012606E0022604E004263D
:1027700002E0082600E000BFC1E0BE4920688842B0
:1027800015D1BB48006800F00C0030B1042808D017
:10279000082804D00C2808D105E0002606E002260F
:1027A00004E0042602E0082600E000BFA7E0B249EA
:1027B0002068884215D1AE48006800F0300030B182
:1027C000102808D0202804D0302808D105E00026A1
:1027D00006E0022604E0042602E0082600E000BF2E
:1027E0008DE0A6492068884215D1A148006800F014
:1027F000C00030B1402808D0802804D0C02808D1BB
:1028000005E0002606E0022604E0042602E0082691
:1028100000E000BF73E09A492068884218D19448CC
:10282000006800F4407048B1B0F5807F0AD0B0F580
:10283000007F05D0B0F5407F08D105E0002606E016
:10284000022604E0042602E0082600E000BF56E06D
:102850008C492068884218D18548006800F440609F
:1028600048B1B0F5806F0AD0B0F5006F05D0B0F573
:10287000406F08D105E0012606E0022604E00426A8
:1028800002E0082600E000BF39E07F492068884266
:1028900018D17748006800F4405048B1B0F5805F27
:1028A0000AD0B0F5005F05D0B0F5405F08D105E073
:1028B000002606E0022604E0042602E0082600E0E6
:1028C00000BF1CE071492068884218D16848006840
:1028D00000F4404048B1B0F5804F0AD0B0F5004F49
:1028E00005D0B0F5404F08D105E0002606E00226ED
:1028F00004E0042602E0082600E000BF00BF00BF9D
:10290000E069B0F5004F52D1042E2BD005DC4EB15A
:10291000012E12D0022E3BD11AE0082E2DD0102EFF
:1029200036D136E0FEF710FC4000616800EB510044
:10293000B0FBF1F01FFA80F82EE0FEF715FC400026
:10294000616800EB5100B0FBF1F01FFA80F823E062
:102950004F49606801EB50006168B0FBF1F01FFA6D
:1029600080F819E0FEF710FC4000616800EB5100B0
:10297000B0FBF1F01FFA80F80EE04FF48031606890
:1029800001EB50006168B0FBF1F01FFA80F803E042
:1029900000BF4FF0010900BF00BF4FF6F07008EA1A
:1029A0000007C8F3420007432068C76086E0042E92
:1029B0002CD005DC4EB1012E12D0022E79D11AE0B6
:1029C000082E6AD0102E74D174E0FEF7BDFB61684A
:1029D00000EB5100B0FBF1F080B22168C8606CE000
:1029E000FEF7C2FB616800EB5100B0FBF1F080B272
:1029F0002168C86061E02749606801EB50006168A8
:102A0000B0FBF1F080B22168C86056E0FEF7BCFB75
:102A1000616800EB5100B0FBF1F080B22168C86042
:102A20004BE046E0415489002E2E5C2E2E5C2E2E6B
:102A30005C447269766572735C53544D3332463729
:102A400078785F48414C5F4472697665725C537276
:102A5000635C73746D3332663778785F68616C5F7E
:102A6000756172742E630000F369FFEF001001407E
:102A7000903802400044004000480040004C0040B4
:102A8000005000400014014000780040007C0040ED
:102A90000048E8010024F400FFE74FF400416068BB
:102AA00001EB50006168B0FBF1F080B22168C860B2
:102AB00003E000BF4FF0010900BF00BF4846BDE87A
:102AC000F0872DE9F04104460D4617469846069ECC
:102AD00021E0701CF8B12EB1FEF738F8A0EB080029
:102AE000B04218D32068006820F4D07021680860D4
:102AF0002068806820F0010021688860202084F828
:102B0000690084F86A0000BF002084F8680000BFF4
:102B10000320BDE8F0812068C0692840A84201D1A7
:102B2000012000E00020B842D3D00020F1E710B52A
:102B300000F004FC10BD00BFFEE700000FB4054B21
:102B400010B503A9044A029800F018F810BC5DF80B
:102B500014FB0000792D00087C00002002E008C86A
:102B6000121F08C1002AFAD170477047002001E007
:102B700001C1121F002AFBD1704700002DE9FF4F51
:102B80008BB09A460F460546002606E025280BD056
:102B900052460D9990476D1C761C28780028F5D177
:102BA0000FB03046BDE8F08F0024A04601226049F6
:102BB00000E0044315F8013F203B02FA03F008420D
:102BC000F7D128782E2817D115F8010F44F0040406
:102BD0002A280ED06FF02F022878A0F130010929A1
:102BE0000AD808EB880102EB410100EB01086D1CDB
:102BF000F2E757F8048B6D1C287869283ED006DC74
:102C00000028CDD063280BD0642804D136E0732887
:102C100010D075284BD052460D999047761C85E010
:102C200017F8040B8DF8000000208DF80100E9462C
:102C3000012003E057F8049B4FF0FF3061074FF08D
:102C4000000401D40AE0641C44450DDA8442FADB36
:102C500019F804100029F6D106E0641C8442FCDB5C
:102C600019F804100029F8D1264404E019F8010BE2
:102C700052460D999047641EF8D257E001CF4FF0AD
:102C80000A0B002802DA40422D2102E0210504D57A
:102C90002B218DF82410012103E0E10705D020212C
:102CA000F7E70DF1200908910CE00021F9E701CFC9
:102CB0004FF00A0BF9E75946FDF731FB01F13002FD
:102CC00009F8012D0028F6D1ADEB090000F1200B29
:102CD000600701D44FF00108D84502DDA8EB0B00D6
:102CE00000E000208046002406E009A85246005D6E
:102CF0000D999047641C761C08988442F5DB04E02B
:102D0000302052460D999047761CB8F10001A8F189
:102D10000108F5DC05E019F8010B52460D999047C2
:102D2000761CBBF10001ABF1010BF4DC6D1C34E748
:102D30000928010004460D462A46214602A0FFF755
:102D4000FDFE00BFFEE7000057726F6E67207061E6
:102D500072616D65746572732076616C75653A2079
:102D600066696C65202573206F6E206C696E652026
:102D700025640D0A0000000013B50C464FF6FF73E2
:102D8000012269460248FFF753F900981CBD000074
:102D9000C00000201CB5FDF70BFBFDF7E9FEFFF7B7
:102DA0001DFAFFF7C4FE0D480068032100238022AE
:102DB000CDE900100AA10C4800F0CAFD0B480068DC
:102DC000022100238022CDE9001009A10A4800F069
:102DD000BFFD00F0B1FC00BFFEE7000000000020D6
:102DE0005461736B2031000061350008040000203D
:102DF0005461736B20320000C535000810B50446DD
:102E000000F002FB23480068401C22490860224869
:102E1000006840B9204804600846006801280DD1C8
:102E200000F02CF90AE01D48006838B91A4800681B
:102E3000C06AE16A884201D81748046018480068EF
:102E4000401C1749086094F82C100120884015494F
:102E50000968084313490860E16A01EB8101124ADD
:102E600002EB8100211D00F0C3FA00F0FBFA0B48D1
:102E7000006868B108480068C06AE16A884207D201
:102E80004FF0805009490860BFF34F8FBFF36F8F39
:102E900010BD00002C0000201C0000203800002085
:102EA00048000020340000203001002004ED00E044
:102EB00070B523E000F088FC1348006808B90120D1
:102EC00000E00020054600F019FEBDB900F09CFAB4
:102ED0000D48C068C468201D00F054FA0B48006813
:102EE000401E0A4908600A480068401E08490860F8
:102EF00000F0B8FA204600F00DF800BF0448006862
:102F00000028D7D170BD00000C0200202C0000204A
:102F10002800002010B50446206B00F0C3FA2046BC
:102F200000F0C0FA10BD000030B54FF40063174840
:102F300000F007042CB1C01D20F00700134C041B47
:102F40001B1B0246124C22600024114D6C60D018ED
:102F5000083820F007000F4C206000240D4D2D682C
:102F60006C600C4D2D682C601146441A4C60094C65
:102F700024680C60084D4C682C60084D4C682C602F
:102F80004FF00044064D2C6030BD0000340200209C
:102F9000640000206C0000207400002070000020FD
:102FA0007800002000BFFFF783FF06480068012873
:102FB000F9D94FF0805004490860BFF34F8FBFF339
:102FC0006F8FF0E73001002004ED00E02DE9FF5F96
:102FD00081460F469246DDE90E6B109CAAF1010076
:102FE000216B01EB800828F0070808F0070008B9FA
:102FF000012000E0002060B900BF502072B680F3CD
:103000001188BFF34F8FBFF36F8F62B600BF00BF51
:10301000FEE7002507E0795D04F134004155785D55
:1030200000B902E06D1C102DF5D300BF0021432034
:103030000155082E00D30726E66266640020A064CE
:10304000201D00F0D2F904F1180000F0CEF924613F
:10305000C6F10800A06164620020E06484F85000BA
:1030600049464046039A00F053F92060BBF1000F37
:1030700001D0CBF80040BDE8FF9F000010B5002450
:1030800007E004EB84010F4A02EB810000F0A0F995
:10309000641C082CF5D30C4800F09AF90B4800F09A
:1030A00097F90B4800F094F90A4800F091F90A48A2
:1030B00000F08EF90448094908600448084908608E
:1030C00010BD000030010020D0010020E4010020EC
:1030D000F80100200C020020200200202000002027
:1030E0002400002010B50146164800E0006803687F
:1030F0008B42FBD30246436813448B4204D143689E
:103100004C682344436001460A464B6813440468F4
:10311000A34211D10C4C03682468A34208D04B6829
:103120000468646823444B6003681B680B6005E017
:10313000054B1B680B6001E003680B60884200D000
:10314000016010BD640000206C0000200A4909687D
:10315000096809B9012100E0002121B14FF0FF31D8
:10316000064A116006E004490968C968C868034A4C
:103170004168116070470000200000204C000020D2
:1031800010480068401C08B9012000E0002060B928
:1031900000BF502072B680F31188BFF34F8FBFF38A
:1031A0006F8F62B600BF00BFFEE700BF502072B64F
:1031B00080F31188BFF34F8FBFF36F8F62B600BFEC
:1031C00000BFFEE7580000202DE9F04104464FF013
:1031D000000800F0F9FA4948006808B9FFF7A4FEB2
:1031E00047480068204000286FD1E4B1083404F05B
:1031F0000700C0B104F00700C0F10800044404F067
:10320000070008B9012000E0002060B900BF50208D
:1032100072B680F31188BFF34F8FBFF36F8F62B622
:1032200000BF00BFFEE7002C4FD036480068844244
:103230004BD8354E3046056801E02E462D6868684B
:10324000A04202D228680028F7D12C4800688542A5
:103250003BD0306800F10808286830606868001BBF
:1032600010281BD92F1907F0070008B9012000E02A
:10327000002060B900BF502072B680F31188BFF300
:103280004F8FBFF36F8F62B600BF00BFFEE7686865
:10329000001B78606C603846FFF724FF19496868A6
:1032A0000968081A1749086008460068174909683C
:1032B000884203D2134800681449086010496868BE
:1032C0000968084368600020286000F017FC08F0D7
:1032D000070008B9012000E0002060B900BF5020BD
:1032E00072B680F31188BFF34F8FBFF36F8F62B652
:1032F00000BF00BFFEE74046BDE8F0816C00002043
:10330000780000207000002064000020740000207D
:10331000001F4FF080730360001F21F00103036062
:10332000001F054B036014380260001F6FF002039A
:1033300003602038704700008131000810B50F4845
:103340000F4908604FF4E130486000210C4881606B
:10335000C160016181610C2141610020084948621E
:103360000846FEF7BFFC08B1FDF75DF80448FEF71C
:1033700033FD08B1FDF757F8002010BD00100140E3
:10338000C000002001460A69D1E901309860D1E906
:10339000010358605068884201D18868506000205D
:1033A00008611068401E10601068704770B50446D0
:1033B00000F02AF814B90548006800E020460646E7
:1033C000F56A00F04FF8284670BD00001C00002090
:1033D00000F1080141604FF0FF31816000F1080108
:1033E000C1600161002101607047002101617047E7
:1033F00042684A6093688B60936859609160086185
:1034000003685B1C0360704700BF502072B680F3F6
:103410001188BFF34F8FBFF36F8F62B600BF0F48A5
:103420000068401C0D49086008460068012814D156
:103430000B480068C0B208B9012000E0002060B964
:1034400000BF502072B680F31188BFF34F8FBFF3D7
:103450006F8F62B600BF00BFFEE7704758000020C4
:1034600004ED00E00E48006860B900BF502072B65D
:1034700080F31188BFF34F8FBFF36F8F62B600BF29
:1034800000BFFEE706480068401E05490860084680
:10349000006820B9002080F3118800BF00BF70478A
:1034A0005800002070B506463546002E43D0083D32
:1034B0002C46214960680968084008B1012000E0F5
:1034C000002060B900BF502072B680F31188BFF3AE
:1034D0004F8FBFF36F8F62B600BF00BFFEE720685B
:1034E00008B9012000E0002060B900BF502072B68A
:1034F00080F31188BFF34F8FBFF36F8F62B600BFA9
:1035000000BFFEE70C4960680968084098B1206870
:1035100088B90949606809688843606000F054F917
:103520000649606809680844044908602046FFF7B6
:10353000D9FD00F0E3FA70BD780000207000002093
:10354000064800684FF47A71B0FBF1F0401E4FF06E
:10355000E021486107200861704700001800002042
:103560000020FFF723FF044600BF06A0FFF7E6FA9E
:1035700009A0FFF7E3FAA11C1148006800F050F819
:10358000F3E700005461736B20312069732072757A
:103590006E6E696E670D0A0041626F757420746FFC
:1035A00020726169736520746865205461736B20B3
:1035B00032207072696F726974790D0A0000000020
:1035C000040000200020FFF7F1FE044600BF05A024
:1035D000FFF7B4FA08A0FFF7B1FAA11E002000F02F
:1035E0001FF8F4E75461736B203220697320727501
:1035F0006E6E696E670D0A0041626F757420746F9C
:10360000206C6F77657220746865205461736B203D
:1036100032207072696F726974790D0A00000000BF
:103620002DE9F04780460D464FF00009082D01D2E4
:10363000012000E0002060B900BF502072B680F386
:103640001188BFF34F8FBFF36F8F62B600BF00BF0B
:10365000FEE7082D00D30725FFF7D6FEB8F1000FCF
:1036600002D13148006800E040460446666CAE4234
:1036700056D0B5420BD92C48006884420DD02A4858
:103680000068C06AA84208D84FF0010905E0264842
:103690000068844201D14FF00109E76AE16A606C79
:1036A000884200D1E5626564A06900F0004010B96D
:1036B000C5F10800A06107EB87011C4A02EB8101FC
:1036C0006069884201D1012000E00020E0B1201DA6
:1036D000FFF758FE30B90120B84015490968814309
:1036E0001348016094F82C100120884010490968A3
:1036F00008430F490860E16A01EB81010B4A02EBC4
:103700008100211DFFF774FEB9F1000F07D04FF0C3
:10371000805008490860BFF34F8FBFF36F8F00BF21
:10372000FFF7A0FEBDE8F0871C000020300100205C
:103730003400002004ED00E01CB51C4800210B46BD
:103740008022CDE900101AA11B4800F001F90446BF
:10375000012C17D100BF502072B680F31188BFF33F
:103760004F8FBFF36F8F62B600BF4FF0FF3013492A
:10377000086001201249086000201249086000F02A
:1037800073F812E0601C08B1012000E0002060B96D
:1037900000BF502072B680F31188BFF34F8FBFF384
:1037A0006F8F62B600BF00BFFEE71CBD5000002057
:1037B00049444C4500000000A52F00084C000020A3
:1037C000380000203000002002480068401C0149F9
:1037D00008607047540000201E48006818B101209E
:1037E0001D49086034E000201B4908601B48006840
:1037F000B0FA80F0C0F11F0101EB8100184A52F8C5
:10380000200008B1012000E0002060B900BF502076
:1038100072B680F31188BFF34F8FBFF36F8F62B61C
:1038200000BF00BFFEE701EB81020D4B03EB8200FE
:1038300042685268426000F108024368934202D134
:103840004268526842604268D268064B1A6000BF04
:103850007047000054000020400000203400002089
:10386000300100201C0000201CB5334908460078B8
:103870000190FF200A4610700846007800909DF8DD
:10388000000000F0F0009DF80020904201D10120DE
:1038900000E0002060B900BF502072B680F31188AC
:1038A000BFF34F8FBFF36F8F62B600BF00BFFEE75D
:1038B0009DF8000000F05000204A10700720204AB8
:1038C000106009E01E480068401E1D4A10609DF807
:1038D00000004006000E00909DF8000000F08000FF
:1038E0008028EFD0164800680002154A1060104684
:1038F000008800F4E06010600F4A019810701148D1
:10390000006840F470000F4908600846006840F005
:1039100070400860FFF714FE00200B490860FCF7B8
:103920007DFC0A48006840F0404008490860FCF708
:1039300065FC00201CBD000000E400E05C000020ED
:103940006000002020ED00E05800002034EF00E08F
:103950002DE9FF4F85B0804689461746DDE912AB59
:10396000B800FFF731FC064656B15420FFF72CFC97
:1039700004460CB1266304E03046FFF793FD00E0F7
:1039800000247CB10020CDE900ABCDE902403A46ED
:1039900049464046089BFFF719FB2046FFF72EFAE1
:1039A000012501E04FF0FF35284609B0BDE8F08F52
:1039B0002DE9F0414FF0000845480068002879D112
:1039C00044480068451C4348056025BB42480068E0
:1039D000006808B9012000E0002060B900BF502055
:1039E00072B680F31188BFF34F8FBFF36F8F62B64B
:1039F00000BF00BFFEE7384807683848006836490E
:103A000008603648076036480068401C3449086042
:103A1000FFF79CFB00BF3348006885423CD300BFE2
:103A20002D480068006808B9012000E0002020B19E
:103A30004FF0FF302B4908602DE027480068C06830
:103A4000C4686668B54202D22648066023E0201D9D
:103A5000FFF798FCA06A18B104F11800FFF792FC78
:103A600094F82C10012088401F49096808431E491A
:103A70000860E16A01EB81011C4A02EB8100211D13
:103A8000FFF7B6FC1A49E06A0968C96A8842C7D3D9
:103A90004FF00108C4E700BF15480068C06A00EB9A
:103AA0008000124951F82000012801D94FF0010887
:103AB00005E0FFE70F480068401C0E4908600E480B
:103AC000006808B14FF001084046BDE8F0810000F1
:103AD000540000203000002020000020240000209E
:103AE000440000204C000020340000203001002061
:103AF0001C0000203C0000204000002070B5002485
:103B000000263748006860B900BF502072B680F3C5
:103B10001188BFF34F8FBFF36F8F62B600BF00BF36
:103B2000FEE7FFF771FC2E480068401E2C49086034
:103B30000846006800284FD12A48006800284BD06A
:103B400024E02948C068C46804F11800FFF71AFC93
:103B5000201DFFF717FC94F82C1001208840234902
:103B60000968084321490860E16A01EB8101204AA4
:103B700002EB8100211DFFF73BFC1E49E06A09684A
:103B8000C96A884202D301201B49086016480068B0
:103B900008B9012000E000200028D2D00CB1FFF7C6
:103BA000D5FA1648056865B100BFFFF701FF10B1EF
:103BB0000120114908606D1E002DF6D100200F492B
:103BC00008600D48006838B1012630070C490860CC
:103BD000BFF34F8FBFF36F8FFFF744FC304670BDCC
:103BE000540000202C000020F801002034000020A8
:103BF000300100201C000020400000203C0000207C
:103C000004ED00E0000000000000000001020304D9
:103C10000607080900000000010203045072696EE3
:103C200066742054657374002E2E5C2E2E5C2E2E2E
:103C30005C447269766572735C53544D3332463717
:103C400078785F48414C5F4472697665725C537264
:103C5000635C73746D3332663778785F68616C5F6C
:103C6000636F727465782E63000000008C3C00085E
:103C700000000020800000005C2B00080C3D0008C4
:103C800080000020B80D00006C2B00080000000030
:103C9000000000001C3C00080000000010000000B4
:103CA000010000000024F4000000000000000000FB
:103CB0000000000000000000000000000000000004
:103CC00000000000000000000000000000000000F4
:103CD00000000000000000000000000000000000E4
:103CE00000000000AAAAAAAA00000000000000002C
:103CF00000000000000000000000000000000000C4
:0C3D0000000000000000000000000000B7
:04000005080001C925
:00000001FF
